{
  "contractName": "Voting",
  "abi": [
    {
      "inputs": [],
      "stateMutability": "nonpayable",
      "type": "constructor"
    },
    {
      "anonymous": false,
      "inputs": [
        {
          "indexed": false,
          "internalType": "uint256",
          "name": "id",
          "type": "uint256"
        }
      ],
      "name": "ResultsRevealed",
      "type": "event"
    },
    {
      "anonymous": false,
      "inputs": [
        {
          "indexed": false,
          "internalType": "uint256",
          "name": "sessionId",
          "type": "uint256"
        },
        {
          "indexed": false,
          "internalType": "address",
          "name": "voter",
          "type": "address"
        },
        {
          "indexed": false,
          "internalType": "string",
          "name": "option",
          "type": "string"
        }
      ],
      "name": "Voted",
      "type": "event"
    },
    {
      "anonymous": false,
      "inputs": [
        {
          "indexed": false,
          "internalType": "uint256",
          "name": "id",
          "type": "uint256"
        },
        {
          "indexed": false,
          "internalType": "string",
          "name": "name",
          "type": "string"
        },
        {
          "indexed": false,
          "internalType": "string",
          "name": "description",
          "type": "string"
        },
        {
          "indexed": false,
          "internalType": "uint256",
          "name": "endDate",
          "type": "uint256"
        }
      ],
      "name": "VotingCreated",
      "type": "event"
    },
    {
      "anonymous": false,
      "inputs": [
        {
          "indexed": false,
          "internalType": "uint256",
          "name": "id",
          "type": "uint256"
        }
      ],
      "name": "VotingEnded",
      "type": "event"
    },
    {
      "inputs": [
        {
          "internalType": "uint256",
          "name": "",
          "type": "uint256"
        },
        {
          "internalType": "address",
          "name": "",
          "type": "address"
        }
      ],
      "name": "hasVoted",
      "outputs": [
        {
          "internalType": "bool",
          "name": "",
          "type": "bool"
        }
      ],
      "stateMutability": "view",
      "type": "function",
      "constant": true
    },
    {
      "inputs": [],
      "name": "owner",
      "outputs": [
        {
          "internalType": "address",
          "name": "",
          "type": "address"
        }
      ],
      "stateMutability": "view",
      "type": "function",
      "constant": true
    },
    {
      "inputs": [
        {
          "internalType": "uint256",
          "name": "",
          "type": "uint256"
        },
        {
          "internalType": "string",
          "name": "",
          "type": "string"
        }
      ],
      "name": "votes",
      "outputs": [
        {
          "internalType": "uint256",
          "name": "",
          "type": "uint256"
        }
      ],
      "stateMutability": "view",
      "type": "function",
      "constant": true
    },
    {
      "inputs": [
        {
          "internalType": "uint256",
          "name": "",
          "type": "uint256"
        }
      ],
      "name": "votingSessions",
      "outputs": [
        {
          "internalType": "uint256",
          "name": "id",
          "type": "uint256"
        },
        {
          "internalType": "string",
          "name": "name",
          "type": "string"
        },
        {
          "internalType": "string",
          "name": "description",
          "type": "string"
        },
        {
          "internalType": "uint256",
          "name": "endDate",
          "type": "uint256"
        },
        {
          "internalType": "bool",
          "name": "resultsRevealed",
          "type": "bool"
        },
        {
          "internalType": "address",
          "name": "creator",
          "type": "address"
        }
      ],
      "stateMutability": "view",
      "type": "function",
      "constant": true
    },
    {
      "inputs": [
        {
          "internalType": "string",
          "name": "_name",
          "type": "string"
        },
        {
          "internalType": "string",
          "name": "_description",
          "type": "string"
        },
        {
          "internalType": "string[]",
          "name": "_options",
          "type": "string[]"
        },
        {
          "internalType": "bool",
          "name": "revealed",
          "type": "bool"
        },
        {
          "internalType": "uint256",
          "name": "_endDate",
          "type": "uint256"
        }
      ],
      "name": "createVoting",
      "outputs": [],
      "stateMutability": "nonpayable",
      "type": "function"
    },
    {
      "inputs": [
        {
          "internalType": "uint256",
          "name": "_id",
          "type": "uint256"
        }
      ],
      "name": "getVotingSession",
      "outputs": [
        {
          "internalType": "string",
          "name": "",
          "type": "string"
        },
        {
          "internalType": "string",
          "name": "",
          "type": "string"
        },
        {
          "internalType": "string[]",
          "name": "",
          "type": "string[]"
        },
        {
          "internalType": "uint256",
          "name": "",
          "type": "uint256"
        },
        {
          "internalType": "bool",
          "name": "",
          "type": "bool"
        },
        {
          "internalType": "address",
          "name": "",
          "type": "address"
        },
        {
          "internalType": "bool",
          "name": "",
          "type": "bool"
        }
      ],
      "stateMutability": "view",
      "type": "function",
      "constant": true
    },
    {
      "inputs": [],
      "name": "getVotingSessions",
      "outputs": [
        {
          "internalType": "uint256[]",
          "name": "",
          "type": "uint256[]"
        },
        {
          "internalType": "string[]",
          "name": "",
          "type": "string[]"
        },
        {
          "internalType": "string[]",
          "name": "",
          "type": "string[]"
        },
        {
          "internalType": "uint256[]",
          "name": "",
          "type": "uint256[]"
        },
        {
          "internalType": "bool[]",
          "name": "",
          "type": "bool[]"
        },
        {
          "internalType": "address[]",
          "name": "",
          "type": "address[]"
        }
      ],
      "stateMutability": "view",
      "type": "function",
      "constant": true
    },
    {
      "inputs": [
        {
          "internalType": "uint256",
          "name": "_id",
          "type": "uint256"
        }
      ],
      "name": "getVotingSessionOptions",
      "outputs": [
        {
          "internalType": "string[]",
          "name": "",
          "type": "string[]"
        }
      ],
      "stateMutability": "view",
      "type": "function",
      "constant": true
    },
    {
      "inputs": [
        {
          "internalType": "uint256",
          "name": "_id",
          "type": "uint256"
        },
        {
          "internalType": "string",
          "name": "_option",
          "type": "string"
        }
      ],
      "name": "vote",
      "outputs": [],
      "stateMutability": "nonpayable",
      "type": "function"
    },
    {
      "inputs": [
        {
          "internalType": "uint256",
          "name": "_id",
          "type": "uint256"
        }
      ],
      "name": "getVotes",
      "outputs": [
        {
          "internalType": "string[]",
          "name": "",
          "type": "string[]"
        },
        {
          "internalType": "uint256[]",
          "name": "",
          "type": "uint256[]"
        }
      ],
      "stateMutability": "view",
      "type": "function",
      "constant": true
    },
    {
      "inputs": [
        {
          "internalType": "uint256",
          "name": "_id",
          "type": "uint256"
        }
      ],
      "name": "revealResults",
      "outputs": [],
      "stateMutability": "nonpayable",
      "type": "function"
    },
    {
      "inputs": [
        {
          "internalType": "uint256",
          "name": "_id",
          "type": "uint256"
        },
        {
          "internalType": "address",
          "name": "_user",
          "type": "address"
        }
      ],
      "name": "hasUserVoted",
      "outputs": [
        {
          "internalType": "bool",
          "name": "",
          "type": "bool"
        }
      ],
      "stateMutability": "view",
      "type": "function",
      "constant": true
    },
    {
      "inputs": [
        {
          "internalType": "uint256",
          "name": "_id",
          "type": "uint256"
        }
      ],
      "name": "endVoting",
      "outputs": [],
      "stateMutability": "nonpayable",
      "type": "function"
    }
  ],
  "bytecode": "0x608060405234801561001057600080fd5b5033600360006101000a81548173ffffffffffffffffffffffffffffffffffffffff021916908373ffffffffffffffffffffffffffffffffffffffff160217905550612dc6806100616000396000f3fe608060405234801561001057600080fd5b50600436106100cf5760003560e01c8063649f89a51161008c578063b8f6255a11610066578063b8f6255a14610248578063d6bd71a414610264578063dc296ae114610280578063ff981099146102b0576100cf565b8063649f89a5146101de5780638da5cb5b146101fa578063b50ac5fc14610218576100cf565b806303e9630f146100d45780631186eb7c146100f757806314f3f3491461012c5780631943c90b1461015c578063241084751461019257806343859632146101ae575b600080fd5b6100dc6102e1565b6040516100ee96959493929190611d6a565b60405180910390f35b610111600480360381019061010c9190611e35565b61076d565b60405161012396959493929190611ed9565b60405180910390f35b6101466004803603810190610141919061207d565b6108f6565b60405161015391906120d9565b60405180910390f35b61017660048036038101906101719190611e35565b610931565b60405161018997969594939291906120f4565b60405180910390f35b6101ac60048036038101906101a7919061207d565b610c15565b005b6101c860048036038101906101c391906121a4565b610f2a565b6040516101d591906121e4565b60405180910390f35b6101f860048036038101906101f39190611e35565b610f59565b005b61020261108a565b60405161020f91906121ff565b60405180910390f35b610232600480360381019061022d9190611e35565b6110b0565b60405161023f919061221a565b60405180910390f35b610262600480360381019061025d9190611e35565b611213565b005b61027e6004803603810190610279919061234e565b611425565b005b61029a600480360381019061029591906121a4565b611602565b6040516102a791906121e4565b60405180910390f35b6102ca60048036038101906102c59190611e35565b61166a565b6040516102d892919061241d565b60405180910390f35b60608060608060608060008080549050905060008167ffffffffffffffff81111561030f5761030e611f52565b5b60405190808252806020026020018201604052801561033d5781602001602082028036833780820191505090505b50905060008267ffffffffffffffff81111561035c5761035b611f52565b5b60405190808252806020026020018201604052801561038f57816020015b606081526020019060019003908161037a5790505b50905060008367ffffffffffffffff8111156103ae576103ad611f52565b5b6040519080825280602002602001820160405280156103e157816020015b60608152602001906001900390816103cc5790505b50905060008467ffffffffffffffff811115610400576103ff611f52565b5b60405190808252806020026020018201604052801561042e5781602001602082028036833780820191505090505b50905060008567ffffffffffffffff81111561044d5761044c611f52565b5b60405190808252806020026020018201604052801561047b5781602001602082028036833780820191505090505b50905060008667ffffffffffffffff81111561049a57610499611f52565b5b6040519080825280602002602001820160405280156104c85781602001602082028036833780820191505090505b50905060005b8781101561074b5760008082815481106104eb576104ea612454565b5b90600052602060002090600602019050806000015488838151811061051357610512612454565b5b60200260200101818152505080600101805461052e906124b2565b80601f016020809104026020016040519081016040528092919081815260200182805461055a906124b2565b80156105a75780601f1061057c576101008083540402835291602001916105a7565b820191906000526020600020905b81548152906001019060200180831161058a57829003601f168201915b50505050508783815181106105bf576105be612454565b5b60200260200101819052508060020180546105d9906124b2565b80601f0160208091040260200160405190810160405280929190818152602001828054610605906124b2565b80156106525780601f1061062757610100808354040283529160200191610652565b820191906000526020600020905b81548152906001019060200180831161063557829003601f168201915b505050505086838151811061066a57610669612454565b5b6020026020010181905250806004015485838151811061068d5761068c612454565b5b602002602001018181525050806004015442108483815181106106b3576106b2612454565b5b6020026020010190151590811515815250508060050160019054906101000a900473ffffffffffffffffffffffffffffffffffffffff168383815181106106fd576106fc612454565b5b602002602001019073ffffffffffffffffffffffffffffffffffffffff16908173ffffffffffffffffffffffffffffffffffffffff168152505050808061074390612512565b9150506104ce565b508585858585859c509c509c509c509c509c5050505050505050909192939495565b6000818154811061077d57600080fd5b90600052602060002090600602016000915090508060000154908060010180546107a6906124b2565b80601f01602080910402602001604051908101604052809291908181526020018280546107d2906124b2565b801561081f5780601f106107f45761010080835404028352916020019161081f565b820191906000526020600020905b81548152906001019060200180831161080257829003601f168201915b505050505090806002018054610834906124b2565b80601f0160208091040260200160405190810160405280929190818152602001828054610860906124b2565b80156108ad5780601f10610882576101008083540402835291602001916108ad565b820191906000526020600020905b81548152906001019060200180831161089057829003601f168201915b5050505050908060040154908060050160009054906101000a900460ff16908060050160019054906101000a900473ffffffffffffffffffffffffffffffffffffffff16905086565b600160205281600052604060002081805160208101820180518482526020830160208501208183528095505050505050600091509150505481565b606080606060008060008060008811801561095157506000805490508811155b610990576040517f08c379a0000000000000000000000000000000000000000000000000000000008152600401610987906125a6565b60405180910390fd5b60008060018a6109a091906125c6565b815481106109b1576109b0612454565b5b906000526020600020906006020190508060010181600201826003018360040154846004015442108560050160019054906101000a900473ffffffffffffffffffffffffffffffffffffffff168660050160009054906101000a900460ff16868054610a1c906124b2565b80601f0160208091040260200160405190810160405280929190818152602001828054610a48906124b2565b8015610a955780601f10610a6a57610100808354040283529160200191610a95565b820191906000526020600020905b815481529060010190602001808311610a7857829003601f168201915b50505050509650858054610aa8906124b2565b80601f0160208091040260200160405190810160405280929190818152602001828054610ad4906124b2565b8015610b215780601f10610af657610100808354040283529160200191610b21565b820191906000526020600020905b815481529060010190602001808311610b0457829003601f168201915b5050505050955084805480602002602001604051908101604052809291908181526020016000905b82821015610bf5578382906000526020600020018054610b68906124b2565b80601f0160208091040260200160405190810160405280929190818152602001828054610b94906124b2565b8015610be15780601f10610bb657610100808354040283529160200191610be1565b820191906000526020600020905b815481529060010190602001808311610bc457829003601f168201915b505050505081526020019060010190610b49565b505050509450975097509750975097509750975050919395979092949650565b816000600182610c2591906125c6565b81548110610c3657610c35612454565b5b9060005260206000209060060201600401544210610c89576040517f08c379a0000000000000000000000000000000000000000000000000000000008152600401610c8090612646565b60405180910390fd5b600080600185610c9991906125c6565b81548110610caa57610ca9612454565b5b906000526020600020906006020190506002600085815260200190815260200160002060003373ffffffffffffffffffffffffffffffffffffffff1673ffffffffffffffffffffffffffffffffffffffff16815260200190815260200160002060009054906101000a900460ff1615610d58576040517f08c379a0000000000000000000000000000000000000000000000000000000008152600401610d4f906126b2565b60405180910390fd5b6000805b8260030180549050811015610df95784604051602001610d7c919061270e565b60405160208183030381529060405280519060200120836003018281548110610da857610da7612454565b5b90600052602060002001604051602001610dc291906127bd565b6040516020818303038152906040528051906020012003610de65760019150610df9565b8080610df190612512565b915050610d5c565b5080610e3a576040517f08c379a0000000000000000000000000000000000000000000000000000000008152600401610e3190612820565b60405180910390fd5b6001600086815260200190815260200160002084604051610e5b919061270e565b90815260200160405180910390206000815480929190610e7a90612512565b919050555060016002600087815260200190815260200160002060003373ffffffffffffffffffffffffffffffffffffffff1673ffffffffffffffffffffffffffffffffffffffff16815260200190815260200160002060006101000a81548160ff0219169083151502179055507f909b43dcc56d91024768bbc5c8d56441234580b2fd6176844960cbc7218cc0b5853386604051610f1b93929190612840565b60405180910390a15050505050565b60026020528160005260406000206020528060005260406000206000915091509054906101000a900460ff1681565b806000600182610f6991906125c6565b81548110610f7a57610f79612454565b5b906000526020600020906006020160050160019054906101000a900473ffffffffffffffffffffffffffffffffffffffff1673ffffffffffffffffffffffffffffffffffffffff163373ffffffffffffffffffffffffffffffffffffffff1614611019576040517f08c379a0000000000000000000000000000000000000000000000000000000008152600401611010906128f0565b60405180910390fd5b42600060018461102991906125c6565b8154811061103a57611039612454565b5b9060005260206000209060060201600401819055507f81eb7415440ff8e6c8e92606fd3b0e5e6a5c99ea90cdb63b41aec54e897312b38260405161107e91906120d9565b60405180910390a15050565b600360009054906101000a900473ffffffffffffffffffffffffffffffffffffffff1681565b60606000821180156110c757506000805490508211155b611106576040517f08c379a00000000000000000000000000000000000000000000000000000000081526004016110fd906125a6565b60405180910390fd5b60008060018461111691906125c6565b8154811061112757611126612454565b5b9060005260206000209060060201905080600301805480602002602001604051908101604052809291908181526020016000905b8282101561120757838290600052602060002001805461117a906124b2565b80601f01602080910402602001604051908101604052809291908181526020018280546111a6906124b2565b80156111f35780601f106111c8576101008083540402835291602001916111f3565b820191906000526020600020905b8154815290600101906020018083116111d657829003601f168201915b50505050508152602001906001019061115b565b50505050915050919050565b80600060018261122391906125c6565b8154811061123457611233612454565b5b906000526020600020906006020160050160019054906101000a900473ffffffffffffffffffffffffffffffffffffffff1673ffffffffffffffffffffffffffffffffffffffff163373ffffffffffffffffffffffffffffffffffffffff16146112d3576040517f08c379a00000000000000000000000000000000000000000000000000000000081526004016112ca906128f0565b60405180910390fd5b8160006001826112e391906125c6565b815481106112f4576112f3612454565b5b906000526020600020906006020160040154421015611348576040517f08c379a000000000000000000000000000000000000000000000000000000000815260040161133f9061295c565b60405180910390fd5b60008060018561135891906125c6565b8154811061136957611368612454565b5b906000526020600020906006020190508060050160009054906101000a900460ff16156113cb576040517f08c379a00000000000000000000000000000000000000000000000000000000081526004016113c2906129ee565b60405180910390fd5b60018160050160006101000a81548160ff0219169083151502179055507fdad003ccb029c02aa1b065bb7ecdf9df8b66c4a46dcdb93befeb2b3408a2849a8460405161141791906120d9565b60405180910390a150505050565b428111611467576040517f08c379a000000000000000000000000000000000000000000000000000000000815260040161145e90612a80565b60405180910390fd5b60006040518060e0016040528060016000805490506114869190612aa0565b815260200187815260200186815260200185815260200183815260200184151581526020013373ffffffffffffffffffffffffffffffffffffffff16815250905060008190806001815401808255809150506001900390600052602060002090600602016000909190919091506000820151816000015560208201518160010190816115129190612c6b565b5060408201518160020190816115289190612c6b565b5060608201518160030190805190602001906115459291906118bc565b506080820151816004015560a08201518160050160006101000a81548160ff02191690831515021790555060c08201518160050160016101000a81548173ffffffffffffffffffffffffffffffffffffffff021916908373ffffffffffffffffffffffffffffffffffffffff16021790555050507f16a79dbbc08c39bc816dcd85d8c18dbfd5dc3425f73d4acbe6a0eb93b7fcae0c81600001518787856040516115f29493929190612d3d565b60405180910390a1505050505050565b60006002600084815260200190815260200160002060008373ffffffffffffffffffffffffffffffffffffffff1673ffffffffffffffffffffffffffffffffffffffff16815260200190815260200160002060009054906101000a900460ff16905092915050565b60608060008311801561168257506000805490508311155b6116c1576040517f08c379a00000000000000000000000000000000000000000000000000000000081526004016116b8906125a6565b60405180910390fd5b6000806001856116d191906125c6565b815481106116e2576116e1612454565b5b9060005260206000209060060201905060008160030180549050905060008167ffffffffffffffff81111561171a57611719611f52565b5b6040519080825280602002602001820160405280156117485781602001602082028036833780820191505090505b50905060005b828110156117d7576001600088815260200190815260200160002084600301828154811061177f5761177e612454565b5b9060005260206000200160405161179691906127bd565b9081526020016040518091039020548282815181106117b8576117b7612454565b5b60200260200101818152505080806117cf90612512565b91505061174e565b50826003018181805480602002602001604051908101604052809291908181526020016000905b828210156118aa57838290600052602060002001805461181d906124b2565b80601f0160208091040260200160405190810160405280929190818152602001828054611849906124b2565b80156118965780601f1061186b57610100808354040283529160200191611896565b820191906000526020600020905b81548152906001019060200180831161187957829003601f168201915b5050505050815260200190600101906117fe565b50505050915094509450505050915091565b828054828255906000526020600020908101928215611904579160200282015b828111156119035782518290816118f39190612c6b565b50916020019190600101906118dc565b5b5090506119119190611915565b5090565b5b80821115611935576000818161192c9190611939565b50600101611916565b5090565b508054611945906124b2565b6000825580601f106119575750611976565b601f0160209004906000526020600020908101906119759190611979565b5b50565b5b8082111561199257600081600090555060010161197a565b5090565b600081519050919050565b600082825260208201905092915050565b6000819050602082019050919050565b6000819050919050565b6119d5816119c2565b82525050565b60006119e783836119cc565b60208301905092915050565b6000602082019050919050565b6000611a0b82611996565b611a1581856119a1565b9350611a20836119b2565b8060005b83811015611a51578151611a3888826119db565b9750611a43836119f3565b925050600181019050611a24565b5085935050505092915050565b600081519050919050565b600082825260208201905092915050565b6000819050602082019050919050565b600081519050919050565b600082825260208201905092915050565b60005b83811015611ac4578082015181840152602081019050611aa9565b60008484015250505050565b6000601f19601f8301169050919050565b6000611aec82611a8a565b611af68185611a95565b9350611b06818560208601611aa6565b611b0f81611ad0565b840191505092915050565b6000611b268383611ae1565b905092915050565b6000602082019050919050565b6000611b4682611a5e565b611b508185611a69565b935083602082028501611b6285611a7a565b8060005b85811015611b9e5784840389528151611b7f8582611b1a565b9450611b8a83611b2e565b925060208a01995050600181019050611b66565b50829750879550505050505092915050565b600081519050919050565b600082825260208201905092915050565b6000819050602082019050919050565b60008115159050919050565b611bf181611bdc565b82525050565b6000611c038383611be8565b60208301905092915050565b6000602082019050919050565b6000611c2782611bb0565b611c318185611bbb565b9350611c3c83611bcc565b8060005b83811015611c6d578151611c548882611bf7565b9750611c5f83611c0f565b925050600181019050611c40565b5085935050505092915050565b600081519050919050565b600082825260208201905092915050565b6000819050602082019050919050565b600073ffffffffffffffffffffffffffffffffffffffff82169050919050565b6000611cd182611ca6565b9050919050565b611ce181611cc6565b82525050565b6000611cf38383611cd8565b60208301905092915050565b6000602082019050919050565b6000611d1782611c7a565b611d218185611c85565b9350611d2c83611c96565b8060005b83811015611d5d578151611d448882611ce7565b9750611d4f83611cff565b925050600181019050611d30565b5085935050505092915050565b600060c0820190508181036000830152611d848189611a00565b90508181036020830152611d988188611b3b565b90508181036040830152611dac8187611b3b565b90508181036060830152611dc08186611a00565b90508181036080830152611dd48185611c1c565b905081810360a0830152611de88184611d0c565b9050979650505050505050565b6000604051905090565b600080fd5b600080fd5b611e12816119c2565b8114611e1d57600080fd5b50565b600081359050611e2f81611e09565b92915050565b600060208284031215611e4b57611e4a611dff565b5b6000611e5984828501611e20565b91505092915050565b611e6b816119c2565b82525050565b600082825260208201905092915050565b6000611e8d82611a8a565b611e978185611e71565b9350611ea7818560208601611aa6565b611eb081611ad0565b840191505092915050565b611ec481611bdc565b82525050565b611ed381611cc6565b82525050565b600060c082019050611eee6000830189611e62565b8181036020830152611f008188611e82565b90508181036040830152611f148187611e82565b9050611f236060830186611e62565b611f306080830185611ebb565b611f3d60a0830184611eca565b979650505050505050565b600080fd5b600080fd5b7f4e487b7100000000000000000000000000000000000000000000000000000000600052604160045260246000fd5b611f8a82611ad0565b810181811067ffffffffffffffff82111715611fa957611fa8611f52565b5b80604052505050565b6000611fbc611df5565b9050611fc88282611f81565b919050565b600067ffffffffffffffff821115611fe857611fe7611f52565b5b611ff182611ad0565b9050602081019050919050565b82818337600083830152505050565b600061202061201b84611fcd565b611fb2565b90508281526020810184848401111561203c5761203b611f4d565b5b612047848285611ffe565b509392505050565b600082601f83011261206457612063611f48565b5b813561207484826020860161200d565b91505092915050565b6000806040838503121561209457612093611dff565b5b60006120a285828601611e20565b925050602083013567ffffffffffffffff8111156120c3576120c2611e04565b5b6120cf8582860161204f565b9150509250929050565b60006020820190506120ee6000830184611e62565b92915050565b600060e082019050818103600083015261210e818a611e82565b905081810360208301526121228189611e82565b905081810360408301526121368188611b3b565b90506121456060830187611e62565b6121526080830186611ebb565b61215f60a0830185611eca565b61216c60c0830184611ebb565b98975050505050505050565b61218181611cc6565b811461218c57600080fd5b50565b60008135905061219e81612178565b92915050565b600080604083850312156121bb576121ba611dff565b5b60006121c985828601611e20565b92505060206121da8582860161218f565b9150509250929050565b60006020820190506121f96000830184611ebb565b92915050565b60006020820190506122146000830184611eca565b92915050565b600060208201905081810360008301526122348184611b3b565b905092915050565b600067ffffffffffffffff82111561225757612256611f52565b5b602082029050602081019050919050565b600080fd5b600061228061227b8461223c565b611fb2565b905080838252602082019050602084028301858111156122a3576122a2612268565b5b835b818110156122ea57803567ffffffffffffffff8111156122c8576122c7611f48565b5b8086016122d5898261204f565b855260208501945050506020810190506122a5565b5050509392505050565b600082601f83011261230957612308611f48565b5b813561231984826020860161226d565b91505092915050565b61232b81611bdc565b811461233657600080fd5b50565b60008135905061234881612322565b92915050565b600080600080600060a0868803121561236a57612369611dff565b5b600086013567ffffffffffffffff81111561238857612387611e04565b5b6123948882890161204f565b955050602086013567ffffffffffffffff8111156123b5576123b4611e04565b5b6123c18882890161204f565b945050604086013567ffffffffffffffff8111156123e2576123e1611e04565b5b6123ee888289016122f4565b93505060606123ff88828901612339565b925050608061241088828901611e20565b9150509295509295909350565b600060408201905081810360008301526124378185611b3b565b9050818103602083015261244b8184611a00565b90509392505050565b7f4e487b7100000000000000000000000000000000000000000000000000000000600052603260045260246000fd5b7f4e487b7100000000000000000000000000000000000000000000000000000000600052602260045260246000fd5b600060028204905060018216806124ca57607f821691505b6020821081036124dd576124dc612483565b5b50919050565b7f4e487b7100000000000000000000000000000000000000000000000000000000600052601160045260246000fd5b600061251d826119c2565b91507fffffffffffffffffffffffffffffffffffffffffffffffffffffffffffffffff820361254f5761254e6124e3565b5b600182019050919050565b7f496e76616c696420766f74696e67204944000000000000000000000000000000600082015250565b6000612590601183611e71565b915061259b8261255a565b602082019050919050565b600060208201905081810360008301526125bf81612583565b9050919050565b60006125d1826119c2565b91506125dc836119c2565b92508282039050818111156125f4576125f36124e3565b5b92915050565b7f566f74696e672074696d65206861732065787069726564000000000000000000600082015250565b6000612630601783611e71565b915061263b826125fa565b602082019050919050565b6000602082019050818103600083015261265f81612623565b9050919050565b7f596f75206861766520616c726561647920766f74656400000000000000000000600082015250565b600061269c601683611e71565b91506126a782612666565b602082019050919050565b600060208201905081810360008301526126cb8161268f565b9050919050565b600081905092915050565b60006126e882611a8a565b6126f281856126d2565b9350612702818560208601611aa6565b80840191505092915050565b600061271a82846126dd565b915081905092915050565b60008190508160005260206000209050919050565b60008154612747816124b2565b61275181866126d2565b9450600182166000811461276c5760018114612781576127b4565b60ff19831686528115158202860193506127b4565b61278a85612725565b60005b838110156127ac5781548189015260018201915060208101905061278d565b838801955050505b50505092915050565b60006127c9828461273a565b915081905092915050565b7f566f74696e67206f7074696f6e20646f6573206e6f7420657869737400000000600082015250565b600061280a601c83611e71565b9150612815826127d4565b602082019050919050565b60006020820190508181036000830152612839816127fd565b9050919050565b60006060820190506128556000830186611e62565b6128626020830185611eca565b81810360408301526128748184611e82565b9050949350505050565b7f4f6e6c79207468652063726561746f72206f662074686520766f74696e67207360008201527f657373696f6e2063616e20706572666f726d207468697320616374696f6e0000602082015250565b60006128da603e83611e71565b91506128e58261287e565b604082019050919050565b60006020820190508181036000830152612909816128cd565b9050919050565b7f566f74696e67206973207374696c6c2061637469766500000000000000000000600082015250565b6000612946601683611e71565b915061295182612910565b602082019050919050565b6000602082019050818103600083015261297581612939565b9050919050565b7f526573756c7473206861766520616c7265616479206265656e2072657665616c60008201527f6564000000000000000000000000000000000000000000000000000000000000602082015250565b60006129d8602283611e71565b91506129e38261297c565b604082019050919050565b60006020820190508181036000830152612a07816129cb565b9050919050565b7f54686520656e642064617465206d75737420626520696e20746865206675747560008201527f7265000000000000000000000000000000000000000000000000000000000000602082015250565b6000612a6a602283611e71565b9150612a7582612a0e565b604082019050919050565b60006020820190508181036000830152612a9981612a5d565b9050919050565b6000612aab826119c2565b9150612ab6836119c2565b9250828201905080821115612ace57612acd6124e3565b5b92915050565b60006020601f8301049050919050565b600082821b905092915050565b600060088302612b217fffffffffffffffffffffffffffffffffffffffffffffffffffffffffffffffff82612ae4565b612b2b8683612ae4565b95508019841693508086168417925050509392505050565b6000819050919050565b6000612b68612b63612b5e846119c2565b612b43565b6119c2565b9050919050565b6000819050919050565b612b8283612b4d565b612b96612b8e82612b6f565b848454612af1565b825550505050565b600090565b612bab612b9e565b612bb6818484612b79565b505050565b5b81811015612bda57612bcf600082612ba3565b600181019050612bbc565b5050565b601f821115612c1f57612bf081612725565b612bf984612ad4565b81016020851015612c08578190505b612c1c612c1485612ad4565b830182612bbb565b50505b505050565b600082821c905092915050565b6000612c4260001984600802612c24565b1980831691505092915050565b6000612c5b8383612c31565b9150826002028217905092915050565b612c7482611a8a565b67ffffffffffffffff811115612c8d57612c8c611f52565b5b612c9782546124b2565b612ca2828285612bde565b600060209050601f831160018114612cd55760008415612cc3578287015190505b612ccd8582612c4f565b865550612d35565b601f198416612ce386612725565b60005b82811015612d0b57848901518255600182019150602085019450602081019050612ce6565b86831015612d285784890151612d24601f891682612c31565b8355505b6001600288020188555050505b505050505050565b6000608082019050612d526000830187611e62565b8181036020830152612d648186611e82565b90508181036040830152612d788185611e82565b9050612d876060830184611e62565b9594505050505056fea2646970667358221220d443958dca7ecb4b823025afc4737e939ad210f91fd3b86fac074168d8e998b764736f6c63430008130033",
  "immutableReferences": {},
  "source": "// SPDX-License-Identifier: UNLICENSED\r\npragma solidity ^0.8.19;\r\n\r\ncontract Voting {\r\n    struct VotingSession {\r\n        uint id;\r\n        string name;\r\n        string description;\r\n        string[] options;\r\n        uint endDate;\r\n        bool resultsRevealed;\r\n        address creator;\r\n    }\r\n\r\n    VotingSession[] public votingSessions;\r\n    mapping(uint => mapping(string => uint)) public votes;\r\n    mapping(uint => mapping(address => bool)) public hasVoted;\r\n    address public owner;\r\n\r\n    event VotingCreated(uint id, string name, string description, uint endDate);\r\n    event Voted(uint sessionId, address voter, string option);\r\n    event VotingEnded(uint id);\r\n    event ResultsRevealed(uint id);\r\n\r\n    modifier onlyOwner() {\r\n        require(msg.sender == owner, \"Only the owner can perform this action\");\r\n        _;\r\n    }\r\n\r\n    modifier onlyCreator(uint _id) {\r\n        require(msg.sender == votingSessions[_id - 1].creator, \"Only the creator of the voting session can perform this action\");\r\n        _;\r\n    }\r\n\r\n    modifier activeVoting(uint _id) {\r\n        require(block.timestamp < votingSessions[_id - 1].endDate, \"Voting time has expired\");\r\n        _;\r\n    }\r\n\r\n    modifier votingEnded(uint _id) {\r\n        require(block.timestamp >= votingSessions[_id - 1].endDate, \"Voting is still active\");\r\n        _;\r\n    }\r\n\r\n    constructor()  {\r\n        owner = msg.sender;\r\n    }\r\n\r\n    function createVoting(\r\n        string memory _name,\r\n        string memory _description,\r\n        string[] memory _options,\r\n        bool revealed,\r\n        uint _endDate\r\n    ) public {\r\n        require(_endDate > block.timestamp, \"The end date must be in the future\");\r\n\r\n        VotingSession memory newVoting = VotingSession({\r\n            id: votingSessions.length + 1,\r\n            name: _name,\r\n            description: _description,\r\n            options: _options,\r\n            endDate: _endDate,\r\n            resultsRevealed: revealed,\r\n            creator: msg.sender\r\n        });\r\n\r\n        votingSessions.push(newVoting);\r\n        emit VotingCreated(newVoting.id, _name, _description, _endDate);\r\n    }\r\n\r\n    function getVotingSession(uint _id) public view returns (\r\n        string memory,\r\n        string memory,\r\n        string[] memory,\r\n        uint,\r\n        bool,\r\n        address,\r\n        bool\r\n    ) {\r\n        require(_id > 0 && _id <= votingSessions.length, \"Invalid voting ID\");\r\n        VotingSession storage session = votingSessions[_id - 1];\r\n        return (\r\n            session.name,\r\n            session.description,\r\n            session.options,\r\n            session.endDate,\r\n            block.timestamp < session.endDate,\r\n            session.creator,\r\n            session.resultsRevealed\r\n        );\r\n    }\r\n\r\n    function getVotingSessions() public view returns (\r\n        uint[] memory,\r\n        string[] memory,\r\n        string[] memory,\r\n        uint[] memory,\r\n        bool[] memory,\r\n        address[] memory\r\n    ) {\r\n        uint length = votingSessions.length;\r\n\r\n        uint[] memory ids = new uint[](length);\r\n        string[] memory names = new string[](length);\r\n        string[] memory descriptions = new string[](length);\r\n        uint[] memory endDates = new uint[](length);\r\n        bool[] memory activeStatuses = new bool[](length);\r\n        address[] memory creators = new address[](length);\r\n\r\n        for (uint i = 0; i < length; i++) {\r\n            VotingSession storage session = votingSessions[i];\r\n            ids[i] = session.id;\r\n            names[i] = session.name;\r\n            descriptions[i] = session.description;\r\n            endDates[i] = session.endDate;\r\n            activeStatuses[i] = block.timestamp < session.endDate;\r\n            creators[i] = session.creator;\r\n        }\r\n\r\n        return (ids, names, descriptions, endDates, activeStatuses, creators);\r\n    }\r\n\r\n    function getVotingSessionOptions(uint _id) public view returns (string[] memory) {\r\n        require(_id > 0 && _id <= votingSessions.length, \"Invalid voting ID\");\r\n        VotingSession storage session = votingSessions[_id - 1];\r\n        return session.options;\r\n    }\r\n\r\n    function vote(uint _id, string memory _option) public activeVoting(_id) {\r\n        VotingSession storage session = votingSessions[_id - 1];\r\n        require(!hasVoted[_id][msg.sender], \"You have already voted\");\r\n\r\n        bool optionExists = false;\r\n        for (uint i = 0; i < session.options.length; i++) {\r\n            if (keccak256(abi.encodePacked(session.options[i])) == keccak256(abi.encodePacked(_option))) {\r\n                optionExists = true;\r\n                break;\r\n            }\r\n        }\r\n        require(optionExists, \"Voting option does not exist\");\r\n\r\n        votes[_id][_option]++;\r\n        hasVoted[_id][msg.sender] = true;\r\n        emit Voted(_id, msg.sender, _option);\r\n    }\r\n\r\n    function getVotes(uint _id) public view returns (string[] memory, uint[] memory) {\r\n        require(_id > 0 && _id <= votingSessions.length, \"Invalid voting ID\");\r\n        VotingSession storage session = votingSessions[_id - 1];\r\n\r\n        uint optionsLength = session.options.length;\r\n        uint[] memory voteCounts = new uint[](optionsLength);\r\n\r\n        for (uint i = 0; i < optionsLength; i++) {\r\n            voteCounts[i] = votes[_id][session.options[i]];\r\n        }\r\n\r\n        return (session.options, voteCounts);\r\n    }\r\n\r\n    function revealResults(uint _id) public onlyCreator(_id) votingEnded(_id) {\r\n        VotingSession storage session = votingSessions[_id - 1];\r\n        require(!session.resultsRevealed, \"Results have already been revealed\");\r\n\r\n        session.resultsRevealed = true;\r\n        emit ResultsRevealed(_id);\r\n    }\r\n\r\n    function hasUserVoted(uint _id, address _user) public view returns (bool) {\r\n        return hasVoted[_id][_user];\r\n    }\r\n\r\n   function endVoting(uint _id) public onlyCreator(_id) {\r\n    votingSessions[_id - 1].endDate = block.timestamp;\r\n    emit VotingEnded(_id);\r\n}\r\n}\r\n",
  "sourcePath": "C:\\Users\\Lenny\\Desktop\\votingsystem\\blockchain\\contracts\\Voting.sol",
  "compiler": {
    "name": "solc",
    "version": "0.8.19+commit.7dd6d404.Emscripten.clang"
  },
  "schemaVersion": "3.4.16",
  "updatedAt": "2024-06-10T10:40:42.514Z",
  "networkType": "ethereum",
  "devdoc": {
    "kind": "dev",
    "methods": {},
    "version": 1
  },
  "userdoc": {
    "kind": "user",
    "methods": {},
    "version": 1
  }
}