{
  "contractName": "Voting",
  "abi": [
    {
      "inputs": [],
      "stateMutability": "nonpayable",
      "type": "constructor"
    },
    {
      "anonymous": false,
      "inputs": [
        {
          "indexed": false,
          "internalType": "uint256",
          "name": "id",
          "type": "uint256"
        }
      ],
      "name": "ResultsRevealed",
      "type": "event"
    },
    {
      "anonymous": false,
      "inputs": [
        {
          "indexed": false,
          "internalType": "uint256",
          "name": "sessionId",
          "type": "uint256"
        },
        {
          "indexed": false,
          "internalType": "address",
          "name": "voter",
          "type": "address"
        },
        {
          "indexed": false,
          "internalType": "string",
          "name": "option",
          "type": "string"
        }
      ],
      "name": "Voted",
      "type": "event"
    },
    {
      "anonymous": false,
      "inputs": [
        {
          "indexed": false,
          "internalType": "uint256",
          "name": "id",
          "type": "uint256"
        },
        {
          "indexed": false,
          "internalType": "string",
          "name": "name",
          "type": "string"
        },
        {
          "indexed": false,
          "internalType": "string",
          "name": "description",
          "type": "string"
        },
        {
          "indexed": false,
          "internalType": "uint256",
          "name": "endDate",
          "type": "uint256"
        }
      ],
      "name": "VotingCreated",
      "type": "event"
    },
    {
      "anonymous": false,
      "inputs": [
        {
          "indexed": false,
          "internalType": "uint256",
          "name": "id",
          "type": "uint256"
        }
      ],
      "name": "VotingEnded",
      "type": "event"
    },
    {
      "inputs": [
        {
          "internalType": "uint256",
          "name": "",
          "type": "uint256"
        },
        {
          "internalType": "address",
          "name": "",
          "type": "address"
        }
      ],
      "name": "hasVoted",
      "outputs": [
        {
          "internalType": "bool",
          "name": "",
          "type": "bool"
        }
      ],
      "stateMutability": "view",
      "type": "function",
      "constant": true
    },
    {
      "inputs": [],
      "name": "owner",
      "outputs": [
        {
          "internalType": "address",
          "name": "",
          "type": "address"
        }
      ],
      "stateMutability": "view",
      "type": "function",
      "constant": true
    },
    {
      "inputs": [
        {
          "internalType": "uint256",
          "name": "",
          "type": "uint256"
        },
        {
          "internalType": "string",
          "name": "",
          "type": "string"
        }
      ],
      "name": "votes",
      "outputs": [
        {
          "internalType": "uint256",
          "name": "",
          "type": "uint256"
        }
      ],
      "stateMutability": "view",
      "type": "function",
      "constant": true
    },
    {
      "inputs": [
        {
          "internalType": "uint256",
          "name": "",
          "type": "uint256"
        }
      ],
      "name": "votingSessions",
      "outputs": [
        {
          "internalType": "uint256",
          "name": "id",
          "type": "uint256"
        },
        {
          "internalType": "string",
          "name": "name",
          "type": "string"
        },
        {
          "internalType": "string",
          "name": "description",
          "type": "string"
        },
        {
          "internalType": "uint256",
          "name": "endDate",
          "type": "uint256"
        },
        {
          "internalType": "bool",
          "name": "isActive",
          "type": "bool"
        },
        {
          "internalType": "bool",
          "name": "resultsRevealed",
          "type": "bool"
        },
        {
          "internalType": "address",
          "name": "creator",
          "type": "address"
        }
      ],
      "stateMutability": "view",
      "type": "function",
      "constant": true
    },
    {
      "inputs": [
        {
          "internalType": "string",
          "name": "_name",
          "type": "string"
        },
        {
          "internalType": "string",
          "name": "_description",
          "type": "string"
        },
        {
          "internalType": "string[]",
          "name": "_options",
          "type": "string[]"
        },
        {
          "internalType": "uint256",
          "name": "_endDate",
          "type": "uint256"
        }
      ],
      "name": "createVoting",
      "outputs": [],
      "stateMutability": "nonpayable",
      "type": "function"
    },
    {
      "inputs": [
        {
          "internalType": "uint256",
          "name": "_id",
          "type": "uint256"
        }
      ],
      "name": "getVotingSession",
      "outputs": [
        {
          "internalType": "string",
          "name": "",
          "type": "string"
        },
        {
          "internalType": "string",
          "name": "",
          "type": "string"
        },
        {
          "internalType": "string[]",
          "name": "",
          "type": "string[]"
        },
        {
          "internalType": "uint256",
          "name": "",
          "type": "uint256"
        },
        {
          "internalType": "bool",
          "name": "",
          "type": "bool"
        },
        {
          "internalType": "address",
          "name": "",
          "type": "address"
        },
        {
          "internalType": "bool",
          "name": "",
          "type": "bool"
        }
      ],
      "stateMutability": "view",
      "type": "function",
      "constant": true
    },
    {
      "inputs": [],
      "name": "getVotingSessions",
      "outputs": [
        {
          "internalType": "uint256[]",
          "name": "",
          "type": "uint256[]"
        },
        {
          "internalType": "string[]",
          "name": "",
          "type": "string[]"
        },
        {
          "internalType": "string[]",
          "name": "",
          "type": "string[]"
        },
        {
          "internalType": "uint256[]",
          "name": "",
          "type": "uint256[]"
        },
        {
          "internalType": "bool[]",
          "name": "",
          "type": "bool[]"
        },
        {
          "internalType": "address[]",
          "name": "",
          "type": "address[]"
        }
      ],
      "stateMutability": "view",
      "type": "function",
      "constant": true
    },
    {
      "inputs": [
        {
          "internalType": "uint256",
          "name": "_id",
          "type": "uint256"
        }
      ],
      "name": "getVotingSessionOptions",
      "outputs": [
        {
          "internalType": "string[]",
          "name": "",
          "type": "string[]"
        }
      ],
      "stateMutability": "view",
      "type": "function",
      "constant": true
    },
    {
      "inputs": [
        {
          "internalType": "uint256",
          "name": "_id",
          "type": "uint256"
        },
        {
          "internalType": "string",
          "name": "_option",
          "type": "string"
        }
      ],
      "name": "vote",
      "outputs": [],
      "stateMutability": "nonpayable",
      "type": "function"
    },
    {
      "inputs": [
        {
          "internalType": "uint256",
          "name": "_id",
          "type": "uint256"
        }
      ],
      "name": "getVotes",
      "outputs": [
        {
          "internalType": "string[]",
          "name": "",
          "type": "string[]"
        },
        {
          "internalType": "uint256[]",
          "name": "",
          "type": "uint256[]"
        }
      ],
      "stateMutability": "view",
      "type": "function",
      "constant": true
    },
    {
      "inputs": [
        {
          "internalType": "uint256",
          "name": "_id",
          "type": "uint256"
        }
      ],
      "name": "revealResults",
      "outputs": [],
      "stateMutability": "nonpayable",
      "type": "function"
    },
    {
      "inputs": [],
      "name": "getAllVotes",
      "outputs": [
        {
          "internalType": "uint256[]",
          "name": "",
          "type": "uint256[]"
        },
        {
          "internalType": "string[]",
          "name": "",
          "type": "string[]"
        },
        {
          "internalType": "uint256[]",
          "name": "",
          "type": "uint256[]"
        }
      ],
      "stateMutability": "view",
      "type": "function",
      "constant": true
    },
    {
      "inputs": [
        {
          "internalType": "uint256",
          "name": "_id",
          "type": "uint256"
        },
        {
          "internalType": "address",
          "name": "_user",
          "type": "address"
        }
      ],
      "name": "hasUserVoted",
      "outputs": [
        {
          "internalType": "bool",
          "name": "",
          "type": "bool"
        }
      ],
      "stateMutability": "view",
      "type": "function",
      "constant": true
    },
    {
      "inputs": [
        {
          "internalType": "uint256",
          "name": "_id",
          "type": "uint256"
        }
      ],
      "name": "endVoting",
      "outputs": [],
      "stateMutability": "nonpayable",
      "type": "function"
    }
  ],
  "bytecode": "0x608060405234801561001057600080fd5b5033600360006101000a81548173ffffffffffffffffffffffffffffffffffffffff021916908373ffffffffffffffffffffffffffffffffffffffff160217905550613382806100616000396000f3fe608060405234801561001057600080fd5b50600436106100ea5760003560e01c8063851b6ef21161008c578063b50ac5fc11610066578063b50ac5fc14610270578063b8f6255a146102a0578063dc296ae1146102bc578063ff981099146102ec576100ea565b8063851b6ef2146102165780638da5cb5b14610236578063b240b1d114610254576100ea565b80631943c90b116100c85780631943c90b1461017857806324108475146101ae57806343859632146101ca578063649f89a5146101fa576100ea565b806303e9630f146100ef5780631186eb7c1461011257806314f3f34914610148575b600080fd5b6100f761031d565b60405161010996959493929190612234565b60405180910390f35b61012c600480360381019061012791906122ff565b6107b4565b60405161013f97969594939291906123a3565b60405180910390f35b610162600480360381019061015d9190612555565b610950565b60405161016f91906125b1565b60405180910390f35b610192600480360381019061018d91906122ff565b61098b565b6040516101a597969594939291906125cc565b60405180910390f35b6101c860048036038101906101c39190612555565b610c7a565b005b6101e460048036038101906101df919061267c565b61100d565b6040516101f191906126bc565b60405180910390f35b610214600480360381019061020f91906122ff565b61103c565b005b61021e6111d7565b60405161022d939291906126d7565b60405180910390f35b61023e61152a565b60405161024b9190612723565b60405180910390f35b61026e60048036038101906102699190612824565b611550565b005b61028a600480360381019061028591906122ff565b611757565b60405161029791906128df565b60405180910390f35b6102ba60048036038101906102b591906122ff565b6118ba565b005b6102d660048036038101906102d1919061267c565b611acc565b6040516102e391906126bc565b60405180910390f35b610306600480360381019061030191906122ff565b611b34565b604051610314929190612901565b60405180910390f35b60608060608060608060008080549050905060008167ffffffffffffffff81111561034b5761034a61242a565b5b6040519080825280602002602001820160405280156103795781602001602082028036833780820191505090505b50905060008267ffffffffffffffff8111156103985761039761242a565b5b6040519080825280602002602001820160405280156103cb57816020015b60608152602001906001900390816103b65790505b50905060008367ffffffffffffffff8111156103ea576103e961242a565b5b60405190808252806020026020018201604052801561041d57816020015b60608152602001906001900390816104085790505b50905060008467ffffffffffffffff81111561043c5761043b61242a565b5b60405190808252806020026020018201604052801561046a5781602001602082028036833780820191505090505b50905060008567ffffffffffffffff8111156104895761048861242a565b5b6040519080825280602002602001820160405280156104b75781602001602082028036833780820191505090505b50905060008667ffffffffffffffff8111156104d6576104d561242a565b5b6040519080825280602002602001820160405280156105045781602001602082028036833780820191505090505b50905060005b8781101561079257600080828154811061052757610526612938565b5b90600052602060002090600602019050806000015488838151811061054f5761054e612938565b5b60200260200101818152505080600101805461056a90612996565b80601f016020809104026020016040519081016040528092919081815260200182805461059690612996565b80156105e35780601f106105b8576101008083540402835291602001916105e3565b820191906000526020600020905b8154815290600101906020018083116105c657829003601f168201915b50505050508783815181106105fb576105fa612938565b5b602002602001018190525080600201805461061590612996565b80601f016020809104026020016040519081016040528092919081815260200182805461064190612996565b801561068e5780601f106106635761010080835404028352916020019161068e565b820191906000526020600020905b81548152906001019060200180831161067157829003601f168201915b50505050508683815181106106a6576106a5612938565b5b602002602001018190525080600401548583815181106106c9576106c8612938565b5b6020026020010181815250508060050160009054906101000a900460ff168483815181106106fa576106f9612938565b5b6020026020010190151590811515815250508060050160029054906101000a900473ffffffffffffffffffffffffffffffffffffffff1683838151811061074457610743612938565b5b602002602001019073ffffffffffffffffffffffffffffffffffffffff16908173ffffffffffffffffffffffffffffffffffffffff168152505050808061078a906129f6565b91505061050a565b508585858585859c509c509c509c509c509c5050505050505050909192939495565b600081815481106107c457600080fd5b90600052602060002090600602016000915090508060000154908060010180546107ed90612996565b80601f016020809104026020016040519081016040528092919081815260200182805461081990612996565b80156108665780601f1061083b57610100808354040283529160200191610866565b820191906000526020600020905b81548152906001019060200180831161084957829003601f168201915b50505050509080600201805461087b90612996565b80601f01602080910402602001604051908101604052809291908181526020018280546108a790612996565b80156108f45780601f106108c9576101008083540402835291602001916108f4565b820191906000526020600020905b8154815290600101906020018083116108d757829003601f168201915b5050505050908060040154908060050160009054906101000a900460ff16908060050160019054906101000a900460ff16908060050160029054906101000a900473ffffffffffffffffffffffffffffffffffffffff16905087565b600160205281600052604060002081805160208101820180518482526020830160208501208183528095505050505050600091509150505481565b60608060606000806000806000881180156109ab57506000805490508811155b6109ea576040517f08c379a00000000000000000000000000000000000000000000000000000000081526004016109e190612a8a565b60405180910390fd5b60008060018a6109fa9190612aaa565b81548110610a0b57610a0a612938565b5b9060005260206000209060060201905080600101816002018260030183600401548460050160009054906101000a900460ff168560050160029054906101000a900473ffffffffffffffffffffffffffffffffffffffff168660050160019054906101000a900460ff16868054610a8190612996565b80601f0160208091040260200160405190810160405280929190818152602001828054610aad90612996565b8015610afa5780601f10610acf57610100808354040283529160200191610afa565b820191906000526020600020905b815481529060010190602001808311610add57829003601f168201915b50505050509650858054610b0d90612996565b80601f0160208091040260200160405190810160405280929190818152602001828054610b3990612996565b8015610b865780601f10610b5b57610100808354040283529160200191610b86565b820191906000526020600020905b815481529060010190602001808311610b6957829003601f168201915b5050505050955084805480602002602001604051908101604052809291908181526020016000905b82821015610c5a578382906000526020600020018054610bcd90612996565b80601f0160208091040260200160405190810160405280929190818152602001828054610bf990612996565b8015610c465780601f10610c1b57610100808354040283529160200191610c46565b820191906000526020600020905b815481529060010190602001808311610c2957829003601f168201915b505050505081526020019060010190610bae565b505050509450975097509750975097509750975050919395979092949650565b816000600182610c8a9190612aaa565b81548110610c9b57610c9a612938565b5b906000526020600020906006020160050160009054906101000a900460ff16610cf9576040517f08c379a0000000000000000000000000000000000000000000000000000000008152600401610cf090612b2a565b60405180910390fd5b6000600182610d089190612aaa565b81548110610d1957610d18612938565b5b9060005260206000209060060201600401544210610d6c576040517f08c379a0000000000000000000000000000000000000000000000000000000008152600401610d6390612b96565b60405180910390fd5b600080600185610d7c9190612aaa565b81548110610d8d57610d8c612938565b5b906000526020600020906006020190506002600085815260200190815260200160002060003373ffffffffffffffffffffffffffffffffffffffff1673ffffffffffffffffffffffffffffffffffffffff16815260200190815260200160002060009054906101000a900460ff1615610e3b576040517f08c379a0000000000000000000000000000000000000000000000000000000008152600401610e3290612c02565b60405180910390fd5b6000805b8260030180549050811015610edc5784604051602001610e5f9190612c5e565b60405160208183030381529060405280519060200120836003018281548110610e8b57610e8a612938565b5b90600052602060002001604051602001610ea59190612d0d565b6040516020818303038152906040528051906020012003610ec95760019150610edc565b8080610ed4906129f6565b915050610e3f565b5080610f1d576040517f08c379a0000000000000000000000000000000000000000000000000000000008152600401610f1490612d70565b60405180910390fd5b6001600086815260200190815260200160002084604051610f3e9190612c5e565b90815260200160405180910390206000815480929190610f5d906129f6565b919050555060016002600087815260200190815260200160002060003373ffffffffffffffffffffffffffffffffffffffff1673ffffffffffffffffffffffffffffffffffffffff16815260200190815260200160002060006101000a81548160ff0219169083151502179055507f909b43dcc56d91024768bbc5c8d56441234580b2fd6176844960cbc7218cc0b5853386604051610ffe93929190612d90565b60405180910390a15050505050565b60026020528160005260406000206020528060005260406000206000915091509054906101000a900460ff1681565b80600060018261104c9190612aaa565b8154811061105d5761105c612938565b5b906000526020600020906006020160050160029054906101000a900473ffffffffffffffffffffffffffffffffffffffff1673ffffffffffffffffffffffffffffffffffffffff163373ffffffffffffffffffffffffffffffffffffffff16146110fc576040517f08c379a00000000000000000000000000000000000000000000000000000000081526004016110f390612e40565b60405180910390fd5b60008060018461110c9190612aaa565b8154811061111d5761111c612938565b5b906000526020600020906006020190508060050160009054906101000a900460ff1661117e576040517f08c379a000000000000000000000000000000000000000000000000000000000815260040161117590612eac565b60405180910390fd5b60008160050160006101000a81548160ff0219169083151502179055507f81eb7415440ff8e6c8e92606fd3b0e5e6a5c99ea90cdb63b41aec54e897312b3836040516111ca91906125b1565b60405180910390a1505050565b60608060606000808054905090506000805b8281101561123a576000818154811061120557611204612938565b5b906000526020600020906006020160030180549050826112259190612ecc565b91508080611232906129f6565b9150506111e9565b5060008167ffffffffffffffff8111156112575761125661242a565b5b6040519080825280602002602001820160405280156112855781602001602082028036833780820191505090505b50905060008267ffffffffffffffff8111156112a4576112a361242a565b5b6040519080825280602002602001820160405280156112d757816020015b60608152602001906001900390816112c25790505b50905060008367ffffffffffffffff8111156112f6576112f561242a565b5b6040519080825280602002602001820160405280156113245781602001602082028036833780820191505090505b5090506000805b8681101561151557600080828154811061134857611347612938565b5b906000526020600020906006020190508060050160019054906101000a900460ff16156115015760005b81600301805490508110156114ff57816000015487858151811061139957611398612938565b5b6020026020010181815250508160030181815481106113bb576113ba612938565b5b9060005260206000200180546113d090612996565b80601f01602080910402602001604051908101604052809291908181526020018280546113fc90612996565b80156114495780601f1061141e57610100808354040283529160200191611449565b820191906000526020600020905b81548152906001019060200180831161142c57829003601f168201915b505050505086858151811061146157611460612938565b5b6020026020010181905250600160008360000154815260200190815260200160002082600301828154811061149957611498612938565b5b906000526020600020016040516114b09190612d0d565b9081526020016040518091039020548585815181106114d2576114d1612938565b5b60200260200101818152505083806114e9906129f6565b94505080806114f7906129f6565b915050611372565b505b50808061150d906129f6565b91505061132b565b50838383985098509850505050505050909192565b600360009054906101000a900473ffffffffffffffffffffffffffffffffffffffff1681565b428111611592576040517f08c379a000000000000000000000000000000000000000000000000000000000815260040161158990612f72565b60405180910390fd5b600060405180610100016040528060016000805490506115b29190612ecc565b81526020018681526020018581526020018481526020018381526020016001151581526020016000151581526020013373ffffffffffffffffffffffffffffffffffffffff16815250905060008190806001815401808255809150506001900390600052602060002090600602016000909190919091506000820151816000015560208201518160010190816116489190613129565b50604082015181600201908161165e9190613129565b50606082015181600301908051906020019061167b929190611d86565b506080820151816004015560a08201518160050160006101000a81548160ff02191690831515021790555060c08201518160050160016101000a81548160ff02191690831515021790555060e08201518160050160026101000a81548173ffffffffffffffffffffffffffffffffffffffff021916908373ffffffffffffffffffffffffffffffffffffffff16021790555050507f16a79dbbc08c39bc816dcd85d8c18dbfd5dc3425f73d4acbe6a0eb93b7fcae0c816000015186868560405161174894939291906131fb565b60405180910390a15050505050565b606060008211801561176e57506000805490508211155b6117ad576040517f08c379a00000000000000000000000000000000000000000000000000000000081526004016117a490612a8a565b60405180910390fd5b6000806001846117bd9190612aaa565b815481106117ce576117cd612938565b5b9060005260206000209060060201905080600301805480602002602001604051908101604052809291908181526020016000905b828210156118ae57838290600052602060002001805461182190612996565b80601f016020809104026020016040519081016040528092919081815260200182805461184d90612996565b801561189a5780601f1061186f5761010080835404028352916020019161189a565b820191906000526020600020905b81548152906001019060200180831161187d57829003601f168201915b505050505081526020019060010190611802565b50505050915050919050565b8060006001826118ca9190612aaa565b815481106118db576118da612938565b5b906000526020600020906006020160050160029054906101000a900473ffffffffffffffffffffffffffffffffffffffff1673ffffffffffffffffffffffffffffffffffffffff163373ffffffffffffffffffffffffffffffffffffffff161461197a576040517f08c379a000000000000000000000000000000000000000000000000000000000815260040161197190612e40565b60405180910390fd5b81600060018261198a9190612aaa565b8154811061199b5761199a612938565b5b9060005260206000209060060201600401544210156119ef576040517f08c379a00000000000000000000000000000000000000000000000000000000081526004016119e69061329a565b60405180910390fd5b6000806001856119ff9190612aaa565b81548110611a1057611a0f612938565b5b906000526020600020906006020190508060050160019054906101000a900460ff1615611a72576040517f08c379a0000000000000000000000000000000000000000000000000000000008152600401611a699061332c565b60405180910390fd5b60018160050160016101000a81548160ff0219169083151502179055507fdad003ccb029c02aa1b065bb7ecdf9df8b66c4a46dcdb93befeb2b3408a2849a84604051611abe91906125b1565b60405180910390a150505050565b60006002600084815260200190815260200160002060008373ffffffffffffffffffffffffffffffffffffffff1673ffffffffffffffffffffffffffffffffffffffff16815260200190815260200160002060009054906101000a900460ff16905092915050565b606080600083118015611b4c57506000805490508311155b611b8b576040517f08c379a0000000000000000000000000000000000000000000000000000000008152600401611b8290612a8a565b60405180910390fd5b600080600185611b9b9190612aaa565b81548110611bac57611bab612938565b5b9060005260206000209060060201905060008160030180549050905060008167ffffffffffffffff811115611be457611be361242a565b5b604051908082528060200260200182016040528015611c125781602001602082028036833780820191505090505b50905060005b82811015611ca15760016000888152602001908152602001600020846003018281548110611c4957611c48612938565b5b90600052602060002001604051611c609190612d0d565b908152602001604051809103902054828281518110611c8257611c81612938565b5b6020026020010181815250508080611c99906129f6565b915050611c18565b50826003018181805480602002602001604051908101604052809291908181526020016000905b82821015611d74578382906000526020600020018054611ce790612996565b80601f0160208091040260200160405190810160405280929190818152602001828054611d1390612996565b8015611d605780601f10611d3557610100808354040283529160200191611d60565b820191906000526020600020905b815481529060010190602001808311611d4357829003601f168201915b505050505081526020019060010190611cc8565b50505050915094509450505050915091565b828054828255906000526020600020908101928215611dce579160200282015b82811115611dcd578251829081611dbd9190613129565b5091602001919060010190611da6565b5b509050611ddb9190611ddf565b5090565b5b80821115611dff5760008181611df69190611e03565b50600101611de0565b5090565b508054611e0f90612996565b6000825580601f10611e215750611e40565b601f016020900490600052602060002090810190611e3f9190611e43565b5b50565b5b80821115611e5c576000816000905550600101611e44565b5090565b600081519050919050565b600082825260208201905092915050565b6000819050602082019050919050565b6000819050919050565b611e9f81611e8c565b82525050565b6000611eb18383611e96565b60208301905092915050565b6000602082019050919050565b6000611ed582611e60565b611edf8185611e6b565b9350611eea83611e7c565b8060005b83811015611f1b578151611f028882611ea5565b9750611f0d83611ebd565b925050600181019050611eee565b5085935050505092915050565b600081519050919050565b600082825260208201905092915050565b6000819050602082019050919050565b600081519050919050565b600082825260208201905092915050565b60005b83811015611f8e578082015181840152602081019050611f73565b60008484015250505050565b6000601f19601f8301169050919050565b6000611fb682611f54565b611fc08185611f5f565b9350611fd0818560208601611f70565b611fd981611f9a565b840191505092915050565b6000611ff08383611fab565b905092915050565b6000602082019050919050565b600061201082611f28565b61201a8185611f33565b93508360208202850161202c85611f44565b8060005b8581101561206857848403895281516120498582611fe4565b945061205483611ff8565b925060208a01995050600181019050612030565b50829750879550505050505092915050565b600081519050919050565b600082825260208201905092915050565b6000819050602082019050919050565b60008115159050919050565b6120bb816120a6565b82525050565b60006120cd83836120b2565b60208301905092915050565b6000602082019050919050565b60006120f18261207a565b6120fb8185612085565b935061210683612096565b8060005b8381101561213757815161211e88826120c1565b9750612129836120d9565b92505060018101905061210a565b5085935050505092915050565b600081519050919050565b600082825260208201905092915050565b6000819050602082019050919050565b600073ffffffffffffffffffffffffffffffffffffffff82169050919050565b600061219b82612170565b9050919050565b6121ab81612190565b82525050565b60006121bd83836121a2565b60208301905092915050565b6000602082019050919050565b60006121e182612144565b6121eb818561214f565b93506121f683612160565b8060005b8381101561222757815161220e88826121b1565b9750612219836121c9565b9250506001810190506121fa565b5085935050505092915050565b600060c082019050818103600083015261224e8189611eca565b905081810360208301526122628188612005565b905081810360408301526122768187612005565b9050818103606083015261228a8186611eca565b9050818103608083015261229e81856120e6565b905081810360a08301526122b281846121d6565b9050979650505050505050565b6000604051905090565b600080fd5b600080fd5b6122dc81611e8c565b81146122e757600080fd5b50565b6000813590506122f9816122d3565b92915050565b600060208284031215612315576123146122c9565b5b6000612323848285016122ea565b91505092915050565b61233581611e8c565b82525050565b600082825260208201905092915050565b600061235782611f54565b612361818561233b565b9350612371818560208601611f70565b61237a81611f9a565b840191505092915050565b61238e816120a6565b82525050565b61239d81612190565b82525050565b600060e0820190506123b8600083018a61232c565b81810360208301526123ca818961234c565b905081810360408301526123de818861234c565b90506123ed606083018761232c565b6123fa6080830186612385565b61240760a0830185612385565b61241460c0830184612394565b98975050505050505050565b600080fd5b600080fd5b7f4e487b7100000000000000000000000000000000000000000000000000000000600052604160045260246000fd5b61246282611f9a565b810181811067ffffffffffffffff821117156124815761248061242a565b5b80604052505050565b60006124946122bf565b90506124a08282612459565b919050565b600067ffffffffffffffff8211156124c0576124bf61242a565b5b6124c982611f9a565b9050602081019050919050565b82818337600083830152505050565b60006124f86124f3846124a5565b61248a565b90508281526020810184848401111561251457612513612425565b5b61251f8482856124d6565b509392505050565b600082601f83011261253c5761253b612420565b5b813561254c8482602086016124e5565b91505092915050565b6000806040838503121561256c5761256b6122c9565b5b600061257a858286016122ea565b925050602083013567ffffffffffffffff81111561259b5761259a6122ce565b5b6125a785828601612527565b9150509250929050565b60006020820190506125c6600083018461232c565b92915050565b600060e08201905081810360008301526125e6818a61234c565b905081810360208301526125fa818961234c565b9050818103604083015261260e8188612005565b905061261d606083018761232c565b61262a6080830186612385565b61263760a0830185612394565b61264460c0830184612385565b98975050505050505050565b61265981612190565b811461266457600080fd5b50565b60008135905061267681612650565b92915050565b60008060408385031215612693576126926122c9565b5b60006126a1858286016122ea565b92505060206126b285828601612667565b9150509250929050565b60006020820190506126d16000830184612385565b92915050565b600060608201905081810360008301526126f18186611eca565b905081810360208301526127058185612005565b905081810360408301526127198184611eca565b9050949350505050565b60006020820190506127386000830184612394565b92915050565b600067ffffffffffffffff8211156127595761275861242a565b5b602082029050602081019050919050565b600080fd5b600061278261277d8461273e565b61248a565b905080838252602082019050602084028301858111156127a5576127a461276a565b5b835b818110156127ec57803567ffffffffffffffff8111156127ca576127c9612420565b5b8086016127d78982612527565b855260208501945050506020810190506127a7565b5050509392505050565b600082601f83011261280b5761280a612420565b5b813561281b84826020860161276f565b91505092915050565b6000806000806080858703121561283e5761283d6122c9565b5b600085013567ffffffffffffffff81111561285c5761285b6122ce565b5b61286887828801612527565b945050602085013567ffffffffffffffff811115612889576128886122ce565b5b61289587828801612527565b935050604085013567ffffffffffffffff8111156128b6576128b56122ce565b5b6128c2878288016127f6565b92505060606128d3878288016122ea565b91505092959194509250565b600060208201905081810360008301526128f98184612005565b905092915050565b6000604082019050818103600083015261291b8185612005565b9050818103602083015261292f8184611eca565b90509392505050565b7f4e487b7100000000000000000000000000000000000000000000000000000000600052603260045260246000fd5b7f4e487b7100000000000000000000000000000000000000000000000000000000600052602260045260246000fd5b600060028204905060018216806129ae57607f821691505b6020821081036129c1576129c0612967565b5b50919050565b7f4e487b7100000000000000000000000000000000000000000000000000000000600052601160045260246000fd5b6000612a0182611e8c565b91507fffffffffffffffffffffffffffffffffffffffffffffffffffffffffffffffff8203612a3357612a326129c7565b5b600182019050919050565b7f496e76616c696420766f74696e67204944000000000000000000000000000000600082015250565b6000612a7460118361233b565b9150612a7f82612a3e565b602082019050919050565b60006020820190508181036000830152612aa381612a67565b9050919050565b6000612ab582611e8c565b9150612ac083611e8c565b9250828203905081811115612ad857612ad76129c7565b5b92915050565b7f566f74696e67206973206e6f7420616374697665000000000000000000000000600082015250565b6000612b1460148361233b565b9150612b1f82612ade565b602082019050919050565b60006020820190508181036000830152612b4381612b07565b9050919050565b7f566f74696e672074696d65206861732065787069726564000000000000000000600082015250565b6000612b8060178361233b565b9150612b8b82612b4a565b602082019050919050565b60006020820190508181036000830152612baf81612b73565b9050919050565b7f596f75206861766520616c726561647920766f74656400000000000000000000600082015250565b6000612bec60168361233b565b9150612bf782612bb6565b602082019050919050565b60006020820190508181036000830152612c1b81612bdf565b9050919050565b600081905092915050565b6000612c3882611f54565b612c428185612c22565b9350612c52818560208601611f70565b80840191505092915050565b6000612c6a8284612c2d565b915081905092915050565b60008190508160005260206000209050919050565b60008154612c9781612996565b612ca18186612c22565b94506001821660008114612cbc5760018114612cd157612d04565b60ff1983168652811515820286019350612d04565b612cda85612c75565b60005b83811015612cfc57815481890152600182019150602081019050612cdd565b838801955050505b50505092915050565b6000612d198284612c8a565b915081905092915050565b7f566f74696e67206f7074696f6e20646f6573206e6f7420657869737400000000600082015250565b6000612d5a601c8361233b565b9150612d6582612d24565b602082019050919050565b60006020820190508181036000830152612d8981612d4d565b9050919050565b6000606082019050612da5600083018661232c565b612db26020830185612394565b8181036040830152612dc4818461234c565b9050949350505050565b7f4f6e6c79207468652063726561746f72206f662074686520766f74696e67207360008201527f657373696f6e2063616e20706572666f726d207468697320616374696f6e0000602082015250565b6000612e2a603e8361233b565b9150612e3582612dce565b604082019050919050565b60006020820190508181036000830152612e5981612e1d565b9050919050565b7f566f74696e6720697320616c726561647920656e646564000000000000000000600082015250565b6000612e9660178361233b565b9150612ea182612e60565b602082019050919050565b60006020820190508181036000830152612ec581612e89565b9050919050565b6000612ed782611e8c565b9150612ee283611e8c565b9250828201905080821115612efa57612ef96129c7565b5b92915050565b7f54686520656e642064617465206d75737420626520696e20746865206675747560008201527f7265000000000000000000000000000000000000000000000000000000000000602082015250565b6000612f5c60228361233b565b9150612f6782612f00565b604082019050919050565b60006020820190508181036000830152612f8b81612f4f565b9050919050565b60006020601f8301049050919050565b600082821b905092915050565b600060088302612fdf7fffffffffffffffffffffffffffffffffffffffffffffffffffffffffffffffff82612fa2565b612fe98683612fa2565b95508019841693508086168417925050509392505050565b6000819050919050565b600061302661302161301c84611e8c565b613001565b611e8c565b9050919050565b6000819050919050565b6130408361300b565b61305461304c8261302d565b848454612faf565b825550505050565b600090565b61306961305c565b613074818484613037565b505050565b5b818110156130985761308d600082613061565b60018101905061307a565b5050565b601f8211156130dd576130ae81612c75565b6130b784612f92565b810160208510156130c6578190505b6130da6130d285612f92565b830182613079565b50505b505050565b600082821c905092915050565b6000613100600019846008026130e2565b1980831691505092915050565b600061311983836130ef565b9150826002028217905092915050565b61313282611f54565b67ffffffffffffffff81111561314b5761314a61242a565b5b6131558254612996565b61316082828561309c565b600060209050601f8311600181146131935760008415613181578287015190505b61318b858261310d565b8655506131f3565b601f1984166131a186612c75565b60005b828110156131c9578489015182556001820191506020850194506020810190506131a4565b868310156131e657848901516131e2601f8916826130ef565b8355505b6001600288020188555050505b505050505050565b6000608082019050613210600083018761232c565b8181036020830152613222818661234c565b90508181036040830152613236818561234c565b9050613245606083018461232c565b95945050505050565b7f566f74696e67206973207374696c6c2061637469766500000000000000000000600082015250565b600061328460168361233b565b915061328f8261324e565b602082019050919050565b600060208201905081810360008301526132b381613277565b9050919050565b7f526573756c7473206861766520616c7265616479206265656e2072657665616c60008201527f6564000000000000000000000000000000000000000000000000000000000000602082015250565b600061331660228361233b565b9150613321826132ba565b604082019050919050565b6000602082019050818103600083015261334581613309565b905091905056fea2646970667358221220780046d370f8fed2c25a76c3f2d438ccb4462fa343c37ea738bb3cbf7b86fba664736f6c63430008130033",
  "immutableReferences": {},
  "source": "// SPDX-License-Identifier: UNLICENSED\r\npragma solidity ^0.8.19;\r\ncontract Voting {\r\n    struct VotingSession {\r\n        uint id;\r\n        string name;\r\n        string description;\r\n        string[] options;\r\n        uint endDate;\r\n        bool isActive;\r\n        bool resultsRevealed;\r\n        address creator;\r\n    }\r\n\r\n    VotingSession[] public votingSessions;\r\n    mapping(uint => mapping(string => uint)) public votes;\r\n    mapping(uint => mapping(address => bool)) public hasVoted;\r\n    address public owner;\r\n\r\n    event VotingCreated(uint id, string name, string description, uint endDate);\r\n    event Voted(uint sessionId, address voter, string option);\r\n    event VotingEnded(uint id);\r\n    event ResultsRevealed(uint id);\r\n\r\n    modifier onlyOwner() {\r\n        require(msg.sender == owner, \"Only the owner can perform this action\");\r\n        _;\r\n    }\r\n\r\n    modifier onlyCreator(uint _id) {\r\n        require(msg.sender == votingSessions[_id - 1].creator, \"Only the creator of the voting session can perform this action\");\r\n        _;\r\n    }\r\n\r\n    modifier activeVoting(uint _id) {\r\n        require(votingSessions[_id - 1].isActive, \"Voting is not active\");\r\n        require(block.timestamp < votingSessions[_id - 1].endDate, \"Voting time has expired\");\r\n        _;\r\n    }\r\n    modifier votingEnded(uint _id) {\r\n        require(block.timestamp >= votingSessions[_id - 1].endDate, \"Voting is still active\");\r\n        _;\r\n    }\r\n\r\n    constructor()  {\r\n        owner = msg.sender;\r\n    }\r\n\r\n    function createVoting(string memory _name, string memory _description, string[] memory _options, uint _endDate) public {\r\n        require(_endDate > block.timestamp, \"The end date must be in the future\");\r\n\r\n        VotingSession memory newVoting = VotingSession({\r\n            id: votingSessions.length + 1,\r\n            name: _name,\r\n            description: _description,\r\n            options: _options,\r\n            endDate: _endDate,\r\n            isActive: true,\r\n            resultsRevealed: false,\r\n            creator: msg.sender\r\n        });\r\n\r\n        votingSessions.push(newVoting);\r\n        emit VotingCreated(newVoting.id, _name, _description, _endDate);\r\n    }\r\n\r\n    function getVotingSession(uint _id) public view returns (string memory, string memory, string[] memory, uint, bool, address, bool) {\r\n        require(_id > 0 && _id <= votingSessions.length, \"Invalid voting ID\");\r\n        VotingSession storage session = votingSessions[_id - 1];\r\n        return (session.name, session.description, session.options, session.endDate, session.isActive, session.creator, session.resultsRevealed);\r\n    }\r\n\r\n    function getVotingSessions() public view returns (uint[] memory, string[] memory, string[] memory, uint[] memory, bool[] memory, address[] memory) {\r\n        uint length = votingSessions.length;\r\n\r\n        uint[] memory ids = new uint[](length);\r\n        string[] memory names = new string[](length);\r\n        string[] memory descriptions = new string[](length);\r\n        uint[] memory endDates = new uint[](length);\r\n        bool[] memory statuses = new bool[](length);\r\n        address[] memory creators = new address[](length);\r\n\r\n        for (uint i = 0; i < length; i++) {\r\n            VotingSession storage session = votingSessions[i];\r\n            ids[i] = session.id;\r\n            names[i] = session.name;\r\n            descriptions[i] = session.description;\r\n            endDates[i] = session.endDate;\r\n            statuses[i] = session.isActive;\r\n            creators[i] = session.creator;\r\n        }\r\n\r\n        return (ids, names, descriptions, endDates, statuses, creators);\r\n    }\r\n\r\n    function getVotingSessionOptions(uint _id) public view returns (string[] memory) {\r\n        require(_id > 0 && _id <= votingSessions.length, \"Invalid voting ID\");\r\n        VotingSession storage session = votingSessions[_id - 1];\r\n        return session.options;\r\n    }\r\n\r\n    function vote(uint _id, string memory _option) public activeVoting(_id) {\r\n        VotingSession storage session = votingSessions[_id - 1];\r\n        require(!hasVoted[_id][msg.sender], \"You have already voted\");\r\n\r\n        bool optionExists = false;\r\n        for (uint i = 0; i < session.options.length; i++) {\r\n            if (keccak256(abi.encodePacked(session.options[i])) == keccak256(abi.encodePacked(_option))) {\r\n                optionExists = true;\r\n                break;\r\n            }\r\n        }\r\n        require(optionExists, \"Voting option does not exist\");\r\n\r\n        votes[_id][_option]++;\r\n        hasVoted[_id][msg.sender] = true;\r\n        emit Voted(_id, msg.sender, _option);\r\n    }\r\n\r\n    function getVotes(uint _id) public view returns (string[] memory, uint[] memory) {\r\n        require(_id > 0 && _id <= votingSessions.length, \"Invalid voting ID\");\r\n        VotingSession storage session = votingSessions[_id - 1];\r\n        //require(session.resultsRevealed, \"Results are not yet revealed\");\r\n\r\n        uint optionsLength = session.options.length;\r\n        uint[] memory voteCounts = new uint[](optionsLength);\r\n\r\n        for (uint i = 0; i < optionsLength; i++) {\r\n            voteCounts[i] = votes[_id][session.options[i]];\r\n        }\r\n\r\n        return (session.options, voteCounts);\r\n    }\r\n\r\n    function revealResults(uint _id) public onlyCreator(_id) votingEnded(_id) {\r\n        VotingSession storage session = votingSessions[_id - 1];\r\n        require(!session.resultsRevealed, \"Results have already been revealed\");\r\n\r\n        session.resultsRevealed = true;\r\n        emit ResultsRevealed(_id);\r\n    }\r\n\r\n    function getAllVotes() public view returns (uint[] memory, string[] memory, uint[] memory) {\r\n        uint sessionsLength = votingSessions.length;\r\n        uint totalOptions = 0;\r\n\r\n        for (uint i = 0; i < sessionsLength; i++) {\r\n            totalOptions += votingSessions[i].options.length;\r\n        }\r\n\r\n        uint[] memory sessionIds = new uint[](totalOptions);\r\n        string[] memory optionNames = new string[](totalOptions);\r\n        uint[] memory voteCounts = new uint[](totalOptions);\r\n\r\n        uint index = 0;\r\n        for (uint i = 0; i < sessionsLength; i++) {\r\n            VotingSession storage session = votingSessions[i];\r\n            if (session.resultsRevealed) {\r\n                for (uint j = 0; j < session.options.length; j++) {\r\n                    sessionIds[index] = session.id;\r\n                    optionNames[index] = session.options[j];\r\n                    voteCounts[index] = votes[session.id][session.options[j]];\r\n                    index++;\r\n                }\r\n            }\r\n        }\r\n\r\n        return (sessionIds, optionNames, voteCounts);\r\n    }\r\n\r\n    function hasUserVoted(uint _id, address _user) public view returns (bool) {\r\n        return hasVoted[_id][_user];\r\n    }\r\n\r\n    function endVoting(uint _id) public onlyCreator(_id) {\r\n        VotingSession storage session = votingSessions[_id - 1];\r\n        require(session.isActive, \"Voting is already ended\");\r\n\r\n        session.isActive = false;\r\n        emit VotingEnded(_id);\r\n    }\r\n}\r\n",
  "sourcePath": "C:\\Users\\Lenny\\Desktop\\votingsystem\\blockchain\\contracts\\Voting.sol",
  "compiler": {
    "name": "solc",
    "version": "0.8.19+commit.7dd6d404.Emscripten.clang"
  },
  "schemaVersion": "3.4.16",
  "updatedAt": "2024-06-06T18:38:45.433Z",
  "networkType": "ethereum",
  "devdoc": {
    "kind": "dev",
    "methods": {},
    "version": 1
  },
  "userdoc": {
    "kind": "user",
    "methods": {},
    "version": 1
  }
}